:060000008031E829000038
:0800080083018031200077081C
:10001000A0007808A1007908A2007A08A300850151
:1000200091308400801D162891191F282008F700A0
:100030002108F8002208F9002308FA00090080319D
:10004000602820302100A400A001A101A201A30189
:1000500020006A08FA006908F9006808F8006708D3
:10006000F7000310771C50286B082100A007200020
:100070006C0803186C0F3D2840282100A1072000C0
:100080006D0803186D0F452848282100A20720009D
:100090006E0803186E0F4D2850282100A30720007A
:1000A0002100A30CA20CA10CA00CFA0CF90CF80C6A
:1000B000F70CA40B5C285E282000312820000800E3
:1000C000240015132000911D632824001108151623
:1000D0002000E6002400941A75282000E401240082
:1000E000141D75282000E417240020006408E40A89
:1000F000A600260B9028250DF700F70DFC30F7051C
:1001000077081C3E8400203085000318850A6608A5
:100110008000013180010131800101318001A50A97
:100120002608023C031DA928250DF700F70DFC3019
:10013000F70577081C3E8400203085000318850AE7
:1001400066088000013180010131800101318001A8
:10015000A50A2608033C031D8429250DF700F70D89
:10016000FC30F70577081C3E84002030850003181A
:10017000850A66088000013180010131800101316A
:100180008001A501AF01AE01AD01AC013F08EA005D
:100190003E08E9003D08E8003C08E700EE01ED01FB
:1001A0002730EC001030EB0021207A08B7007908E6
:1001B000B6007808B5007708B4003408AC073508F5
:1001C000AD3D3608AE3D3708AF3D4708EA0046086A
:1001D000E9004508E8004408E700EE01ED01EC0104
:1001E0006430EB0021207A08B7007908B60078085F
:1001F000B5007708B4003408AC073508AD3D3608C3
:10020000AE3D3708AF3D4F08B7004E08B6004D0869
:10021000B5004C08B4003408AC073508AD3D3608CD
:10022000AE3D3708AF3DB301B201B101B0014308A3
:10023000EA004208E9004108E8004008E700EE0152
:10024000ED012730EC001030EB0021207A08B700D8
:100250007908B6007808B5007708B4003408B0070C
:100260003508B13D3608B23D3708B33D4B08EA00CA
:100270004A08E9004908E8004808E700EE01ED01F6
:10028000EC016430EB0021207A08B7007908B60051
:100290007808B5007708B4003408B0073508B13DD8
:1002A0003608B23D3708B33D5308B7005208B600D0
:1002B0005108B5005008B4003408B0073508B13D06
:1002C0003608B23D3708B33D5708E3005608E20050
:1002D0005508E1005408E000600B7D29E108031D8A
:1002E0007D29E208031D7D29E308031D7D292100E6
:1002F0000C1222000C168129200021000C12220071
:100300000C1201302000A800911180311628DF0165
:10031000DE01DD01DC015F082F02031CB629031D8D
:10032000A1295E082E02031CB629031DA1295D0820
:100330002D02031CB629031DA1292C085C020318F9
:10034000B6290000000000000000000000000000CE
:10035000000000000000000000000130DC0703186E
:10036000DD0A0319DE0A0319DF0A8B290800BB0125
:10037000BA01B901B8013B083302031CE629031D89
:10038000D1293A083202031CE629031DD129390874
:100390003102031CE629031DD12930083802031855
:1003A000E62921008C1222008C16200087212100D2
:1003B0008C1222008C12200087210130B80703180C
:1003C000B90A0319BA0A0319BB0ABB2980311A2AD0
:1003D0003C302100990098010E148E14240017104F
:1003E00097109711D03092003630950016140230D5
:1003F0002000A400A501A701A8010330E400230008
:100400008E0121000E1222000E1621009115C0301F
:100410008B048C1222008C122000280B202A210031
:100420008E1620008E1E202A21000E1222000E168B
:100430002000B729A80121000E1222000E12200070
:040440000D2A63001E
:020000040001F9
:04000E00843FCF1F3D
:00000001FF
;PIC16F1454
;CRC=A7A5  CREATED="18-jul.-17 19:34"
