:060000008031772A0000A8
:0800080083018031200077081C
:10001000A0007808A1007908A2007A08A300850151
:1000200091308400801D162891191F282008F700A0
:100030002108F8002208F9002308FA00090080319D
:10004000542820302100A800A401A501A601A70181
:1000500020006D08FA006C08F9006B08F8006A08C7
:10006000F7000310771C442821002008A40721086A
:100070000318210FA50722080318220FA60723083B
:100080000318230FA70720002100A70CA60CA50C1E
:10009000A40CFA0CF90CF80CF70CA80B50285228F9
:1000A0002000312820000800240015132000911D95
:1000B00057282400110815162000E9002400941A7E
:1000C00069282000BD012400141D69282000BD17E7
:1000D000240020003D08BD0AA600260B8428250D1B
:1000E000F700F70DFC30F7057708203E840020303C
:1000F00085000318850A69088000013180010131FB
:10010000800101318001A50A2608023C031D9D28BB
:10011000250DF700F70DFC30F7057708203E840029
:10012000203085000318850A6908800001318001AC
:100130000131800101318001A50A2608033C031D1D
:100140009D29250DF700F70DFC30F7057708203EB7
:100150008400203085000318850A69088000013179
:1001600080010131800101318001A501B001AF01A1
:10017000AE01AD014308ED004208EC004108EB0080
:100180004008EA002100A301A2012730A10010309D
:10019000A000200021207A08B8007908B70078086C
:1001A000B6007708B5003508AD073608AE3D37080C
:1001B000AF3D3808B03D4B08ED004A08EC00490857
:1001C000EB004808EA002100A301A201A10164306C
:1001D000A000200021207A08B8007908B70078082C
:1001E000B6007708B5003508AD073608AE3D3708CC
:1001F000AF3D3808B03D5308B8005208B700510869
:10020000B6005008B5003508AD073608AE3D3708D2
:10021000AF3D3808B03DB401B301B201B1014708A8
:10022000ED004608EC004508EB004408EA00210018
:10023000A301A2012730A1001030A000200021203E
:100240007A08B8007908B7007808B6007708B500D2
:100250003508B1073608B23D3708B33D3808B43D1C
:100260004F08ED004E08EC004D08EB004C08EA008A
:100270002100A301A201A1016430A00020002120DF
:100280007A08B8007908B7007808B6007708B50092
:100290003508B1073608B23D3708B33D3808B43DDC
:1002A0005708B8005608B7005508B6005408B500FE
:1002B0003508B1073608B23D3708B33D3808B43DBC
:1002C0005B08E7005A08E6005908E5005808E40012
:1002D000640B7A29E508031D7A29E608031D7A29AB
:1002E000E708031D7A2921000C1222000C160130A8
:1002F0002000A800E408031D8D29E508031D8D29B1
:10030000E608031D8D29E708031D8D2921000C1225
:1003100022000C1201302000A8006408023C031DDA
:100320009D29E508031D9D29E608031D9D29E70871
:10033000031D9D290130AC00A801911180311628C0
:10034000E301E201E101E00163083002031CCF296F
:10035000031DBA2962082F02031CCF29031DBA29E5
:1003600061082E02031CCF29031DBA292D08600243
:100370000318CF290000000000000000000000006A
:100380000000000000000000000000000130E00755
:100390000318E10A0319E20A0319E30AA429080071
:1003A000BC01BB01BA01B9013C083402031CFF299E
:1003B000031DEA293B083302031CFF29031DEA2918
:1003C0003A083202031CFF29031DEA2931083902C9
:1003D0000318FF2921008C1222008C162000A02176
:1003E00021008C1222008C122000A0210130B907BC
:1003F0000318BA0A0319BB0A0319BC0AD4298031AD
:10040000AD2AB001AF01AE018030AD0021000C1269
:1004100022000C1221000E1520000E191E2A2100A8
:100420008C1222008C162000A02121008C122200A8
:100430008C122000A02122000A2A200021000C1288
:1004400022000C162000B401B3010330B2002030AA
:10045000B100BC01BB01BA01B9013C083402031C64
:10046000582A031D432A3B083302031C582A031D44
:10047000432A3A083202031C582A031D432A39082A
:100480003102031C582A21008C1222008C162000F5
:10049000A02121008C1222008C122000A02101300A
:1004A000B9070318BA0A0319BB0A0319BC0A2D2A93
:1004B00021000C1222000C122000B001AF01033009
:1004C000AE004030AD0021000E1520000E19752A37
:1004D00021008C1222008C162000A02121008C12F9
:1004E00022008C122000A021632A8031C02A3C30D7
:1004F0002100990098010E148E14240017109710F3
:100500009711B0309200363095001614023020005A
:10051000A400A501A701A801AC010330BD00230080
:100520008E0121000E1222000E1621009115C030FE
:100530008B048C1222008C122000280BB32A21007D
:100540008E1620008E1EB32AAC08031DB32A21008C
:100550000E1222000E122000D029A80121000E1236
:1005600022000E1620002C0BC62A21008E16200019
:100570008E1EC62A21000E1222000E122000012A11
:10058000AC0121000E1222000E1620009D2A6300ED
:020000040001F9
:04000E00843FCF1F3D
:00000001FF
;PIC16F1454
;CRC=55BE  CREATED="25-jul.-17 17:21"
