:060000008031712A0000AE
:0800080083018031200077081C
:10001000A0007808A1007908A2007A08A300850151
:1000200091308400801D162891191F282008F700A0
:100030002108F8002208F9002308FA00090080319D
:10004000542820302100A800A401A501A601A70181
:1000500020006D08FA006C08F9006B08F8006A08C7
:10006000F7000310771C442821002008A40721086A
:100070000318210FA50722080318220FA60723083B
:100080000318230FA70720002100A70CA60CA50C1E
:10009000A40CFA0CF90CF80CF70CA80B50285228F9
:1000A0002000312820000800240015132000911D95
:1000B00057282400110815162000E9002400941A7E
:1000C00069282000BD012400141D69282000BD17E7
:1000D000240020003D08BD0AA600260B8428250D1B
:1000E000F700F70DFC30F7057708203E840020303C
:1000F00085000318850A69088000013180010131FB
:10010000800101318001A50A2608023C031D9D28BB
:10011000250DF700F70DFC30F7057708203E840029
:10012000203085000318850A6908800001318001AC
:100130000131800101318001A50A2608033C031D1D
:100140009D29250DF700F70DFC30F7057708203EB7
:100150008400203085000318850A69088000013179
:1001600080010131800101318001A501B001AF01A1
:10017000AE01AD014308ED004208EC004108EB0080
:100180004008EA002100A301A2012730A10010309D
:10019000A000200021207A08B8007908B70078086C
:1001A000B6007708B5003508AD073608AE3D37080C
:1001B000AF3D3808B03D4B08ED004A08EC00490857
:1001C000EB004808EA002100A301A201A10164306C
:1001D000A000200021207A08B8007908B70078082C
:1001E000B6007708B5003508AD073608AE3D3708CC
:1001F000AF3D3808B03D5308B8005208B700510869
:10020000B6005008B5003508AD073608AE3D3708D2
:10021000AF3D3808B03DB401B301B201B1014708A8
:10022000ED004608EC004508EB004408EA00210018
:10023000A301A2012730A1001030A000200021203E
:100240007A08B8007908B7007808B6007708B500D2
:100250003508B1073608B23D3708B33D3808B43D1C
:100260004F08ED004E08EC004D08EB004C08EA008A
:100270002100A301A201A1016430A00020002120DF
:100280007A08B8007908B7007808B6007708B50092
:100290003508B1073608B23D3708B33D3808B43DDC
:1002A0005708B8005608B7005508B6005408B500FE
:1002B0003508B1073608B23D3708B33D3808B43DBC
:1002C0005B08E7005A08E6005908E5005808E40012
:1002D000640B7A29E508031D7A29E608031D7A29AB
:1002E000E708031D7A2921000C1222000C160130A8
:1002F0002000A800E408031D8D29E508031D8D29B1
:10030000E608031D8D29E708031D8D2921000C1225
:1003100022000C1201302000A8006408023C031DDA
:100320009D29E508031D9D29E608031D9D29E70871
:10033000031D9D290130AC00A801911180311628C0
:10034000E301E201E101E00163083002031CC92975
:10035000031DBA2962082F02031CC929031DBA29EB
:1003600061082E02031CC929031DBA292D08600249
:100370000318C92900000000000000000000000070
:100380000130E0070318E10A0319E20A0319E30A3E
:10039000A4290800BC01BB01BA01B9013C08340220
:1003A000031CF929031DE4293B083302031CF92926
:1003B000031DE4293A083202031CF929031DE4292C
:1003C000310839020318F92921008C1222008C16F9
:1003D0002000A02121008C1222008C122000A021DC
:1003E0000130B9070318BA0A0319BB0A0319BC0A7A
:1003F000CE298031A72AB001AF01AE018030AD0017
:1004000021000C1222000C1621000E1520000E19DE
:10041000182A21008C1222008C162000A021210015
:100420008C1222008C122000A0212200042A20001D
:1004300021000C1222000C122000B401B301033081
:10044000B2002030B100BC01BB01BA01B9013C08C7
:100450003402031C522A031D3D2A3B083302031CAD
:10046000522A031D3D2A3A083202031C522A031D58
:100470003D2A39083102031C522A21008C12220025
:100480008C162000A02121008C1222008C1220004A
:10049000A0210130B9070318BA0A0319BB0A0319CE
:1004A000BC0A272A21000C1222000C162000B001E1
:1004B000AF010330AE004030AD0021000E1520002A
:1004C0000E196F2A21008C1222008C162000A02108
:1004D00021008C1222008C122000A0215D2A803184
:1004E000BA2A3C302100990098010E148E14240081
:1004F000171097109711A0309200363095001614FF
:1005000002302000A400A501A701A801AC0103301E
:10051000BD0023008E0121000E1222000E162100C4
:100520009115C0308B048C1222008C122000280BF5
:10053000AD2A21008E1620008E1EAD2AAC08031DA8
:10054000AD2A21000E1222000E122000CA29A80195
:1005500021000E1222000E1620002C0BC02A2100B2
:100560008E1620008E1EC02A21000E1222000E12AE
:100570002000FB29AC0121000E1222000E162000E3
:04058000972A630053
:020000040001F9
:04000E00843FCF1F3D
:00000001FF
;PIC16F1454
;CRC=1D3D  CREATED="25-jul.-17 17:11"
