:0600000090310028000011
:0800080083018031200077081C
:100010002200B3007808B4007908B5007A08B60069
:10002000230011082200B700230012082200B800A4
:10003000230013082200B900230014082200BA008C
:10004000850192308400001D2928200012194228C1
:1000500022003308F7003408F8003508F9003608A4
:10006000FA0037082300910022003808230092008C
:10007000220039082300930022003A08230094004C
:1000800009002000883100280B00003403340234BA
:10009000FF34FF34FF34FF34FF34FF34FF34FF34C8
:1000A000FF34FF34FF34FF34FF340B000034FF34DF
:1000B0000234FF34FF34FF34FF34FF34FF34FF34A5
:1000C000FF34FF34FF34FF34FF34FF340B000834B7
:1000D00000340B3400344034003400340034003435
:1000E0000034003400340034003400340034003470
:1000F0000034003400340034003400340034003460
:1001000000340034003400340034003400340B0078
:1001100008340034003400344034003400340034F7
:10012000003400340034003400340034003400342F
:10013000003400340034003400340034003400341F
:10014000003400340034003400340034003400340F
:100150000B000934023443340034023401340034D7
:10016000803432340934043400340034013402342D
:1001700002340134003405342434003410340134A2
:100180000434243402340234053424340634003474
:100190000134053424340134003401340734053487
:1001A000813403340B340034FA3409340434013418
:1001B000003402340A340034003400340734053487
:1001C00002340234403400340134073405348234BC
:1001D00002344034003401340B0002340B0012347A
:1001E00017341B342034FF34FF34FF34FF340B004A
:1001F0001234013410340134023400340034083431
:10020000053424340B340034003401340134023416
:10021000003401340B00043403340934043408344A
:100220000334433400344334003453340034203432
:100230000334433400344334003453340034203422
:100240000034553400345334003442340034203404
:100250000034743400346F340034203400345534A6
:100260000034413400345234003454340034083003
:10027000A10020302300E9001830E80069082000C0
:10028000A300230068082000A2008830A000A40179
:1002900020302300E9001830E8000830680720000B
:1002A000A60000302300693D2000A70008002400BC
:1002B0002A10A91B2A14A9132908103C0318632922
:1002C0000030F8007D292A1C7229290820004420CA
:1002D000FF3C031D6D2900306E290130F800240019
:1002E0007D297D29290820005520FF3C031D7A29FE
:1002F00000307B290130F8002400200008009830ED
:100300002400280784000E30850080012808A900F9
:1003100020005721F8080319A5292400280DF7000B
:10032000F70DF70DF830F7057708840020308500C9
:100330008001280DF700F70DF70DF830F705770865
:10034000043E840020308500800120000800013038
:100350002400A7002708073C031CB5292708A8008C
:1003600020007F212400A70AAA29200008002300DA
:10037000EC01EB012530EA008030E9006908220039
:10038000CC0023006A082200CD00CE01CF0123005B
:10039000E90169082200D0002300E9016908220070
:1003A000D10008302300E90069082200D200F601DC
:1003B0007510D401D301F4014310FB0120000800A3
:1003C0002200C901C8012300E8016808013C031CA0
:1003D000F329CA3068078400203085000318850A95
:1003E0008001E80AE5292000B7212200BD01013083
:1003F000BE00BC01200008003D0090112000080054
:1004000024002208F20020000800FF30F20008005B
:100410002300ED012200480849040319582A23004B
:100420006D08073C0318162A2200582A22003F08AC
:10043000003A20000319232A023A03192E2A013A0E
:100440000319392A432A22004708FA0046082000E7
:10045000A820F8002300EE002000432A22004708CD
:10046000FA00460820000A21F8002300EE002000D0
:10047000432A22004708FA0046082000F720F80027
:100480002300EE0020002200C60A0319C70A48080C
:100490000319C903C80323006D08ED0A203E840038
:1004A000203085000318850A6E0880000A2A220081
:1004B00048084904031D652A23006D08083C031DF4
:1004C000632A2200652A2200BC0123006D08240053
:1004D000A200200000220800FE30F20008002300E5
:1004E0006C0DF700F70DF70DF830F705770884006D
:1004F000203085000008EE006D08023C031D862AAE
:100500006E1F842AED01862A0130ED006D08033C40
:10051000031D9A2A8430EE006C0DF700F70DF70DDD
:10052000F830F7057708043E8400203085008430D9
:100530008000A12A6D0B9F2AC830EE00A12A8830C6
:10054000EE0003106C0D2400A200220A2000872078
:10055000FA0024002208200087202400A0007A0846
:10056000A10023006C0DF700F70DF70DF830F7052B
:100570007708013E84002030850024002008800098
:10058000211CC52A23006E142400A11CCA2A2300A2
:10059000EE14240023006C0DF700F70DF70DF83072
:1005A000F70577088400203085006E088000200061
:1005B0000800983024002D0784000E308500800844
:1005C0000319F12A2D0DF700F70DF70DF830F70597
:1005D0007708043E8400203085000008AE00AE1F7E
:1005E000F32A0030F42A0130F8002000080024002B
:1005F0002808AD002000D922F8080319582B240040
:10060000280DF700F70DF70DF830F7057708043ED1
:10061000013E840020308500290880002B08023C20
:10062000031D262B280DF700F70DF70DF830F70501
:100630007708043E8400203085000008AC002C1FA1
:10064000232BAB01252B0130AB003C2B2B08043CAA
:10065000031D3C2B280DF700F70DF70DF830F705BB
:1006600077088400203085000008AC002C1F3B2B4D
:100670000130AB003C2BAB012B0B412BC830AC0045
:10068000432B8830AC002A182C14AA18AC14280D5F
:10069000F700F70DF70DF830F7057708043E8400F2
:1006A000203085002C0880000130F8005B2B2000F2
:1006B0000030F8002400200008002200431002301F
:1006C0002300EC00ED0020006F2208002300EA0860
:1006D000031DC42B7B08013A20000319762B023A34
:1006E00003199A2B013A0319A02BC12B38082200B9
:1006F000D500200039082200D60020003A08220048
:10070000D70020003B082200D80020003C0822002F
:10071000D90020003D082200DA0020003E08220017
:10072000DB0020003F082200DC000330FB0020003B
:100730006C22C22B2400A20120000022FB01C22B4C
:1007400038082200CC00200039082200CD0020000B
:100750003A082200CE0020003B082200CF002000F3
:100760003C082200D00020003D082200D1002000DB
:100770003E082200D200FB012400A201200000223A
:10078000C22BFB01E62B23006A08023C031DE82B69
:1007900022004314C50102302300EC006C0DF70069
:1007A000F70DF70DF830F7057708013E840020308B
:1007B0008500FA010008F8007A08F900780822009C
:1007C000C400C408031DE72B20005D232200230082
:1007D0002000080023006E082400AD002000D9226C
:1007E000F8080319352C23006E0DF700F70DF70DEF
:1007F000F830F7057708043E023E8400203085007B
:1008000000082400A400013FA5002508A700240833
:10081000A6002108A9002008A8002208F800031952
:10082000252C29088500280884000008F7002708DF
:1008300085002608840077088000A60A0319A70A05
:10084000A80A0319A90AF80B112C23006E0824002A
:10085000A8002308AA002208A90023006F0824008A
:10086000AB002000F7227808372C0030F800080091
:10087000F40803194E2C02302300EE00203024002F
:10088000A100DD30A000A3017408A2000230230003
:10089000EF002000EA23F808031DF40108002300FC
:1008A000EB08031D732C22003C0B5A2C200008225D
:1008B000712C22003C08023C031D702CBD01BC01C0
:1008C00073082300EC006C083D0096002300EC0840
:1008D00003196D2C0430F1006F2C0230F10022005E
:1008E0002000792C23006B08023C031D7A2C200089
:1008F00038242300200008008A064535651078104A
:10090000613AF23073008A0645356510781061321D
:1009100065366137F43200018A06453565107A1074
:10092000613161356F008A06A022EA32203DA03095
:100930007239693161008A06453565107910E432F3
:10094000F232633461008A06A022EA32A03CA0346D
:10095000FA38F5346539E43000018A0647396938D8
:100960006539A0366537EF3900018A06A023F234D5
:10097000F0327210ED3073008A06C734F237A036B9
:100980006537EF3900018A06A02369396F10ED3011
:1009900073008A064131F23200018A06A021E93251
:1009A0007239610021308500253084000008031968
:1009B000E72C0F30F800F701F70BDC2CF80BDB2CE1
:1009C0008F30F700F70BE22C0000800BD92C0800C9
:1009D0000830F8000F30F700F70BEC2C22000E1255
:1009E00021000E120E30F700F70BF42C2300D40D6B
:1009F00022008E11031CFF2C21008E1522000318EB
:100A0000042D21008E11220021000E1620000E1E42
:100A1000072DF80BEA2C0F30F700F70B0D2D2200F5
:100A20000E1221000E1200008E150E30F700F70B8B
:100A3000172D0E30F700F70B1B2D0E1620000E1E83
:100A40001F2DF8010E30F700F70B242D8E197814A6
:100A500022000E1221000E1222008E1121008E1192
:100A6000200008003D008E19472D2200BB018B1B82
:100A7000BB178B132000E0212200BB1B8B173D000E
:100A80008E011430910092018E150130F100710B2E
:100A9000562D8E1A562D9001920121001215C0304C
:100AA0008B0411303D0092000230F100200008005C
:100AB0003D008E01920121000C148C14F1012200E2
:100AC000BB018B1BBB178B132000E0212200BB1B3B
:100AD0008B17200032257108023C031D6A2D9031CE
:100AE000932822003D08F800903120009928220028
:100AF000431C782D4508C50A333E8400203085000C
:100B00000318850A00082300D40022004408450287
:100B1000031C932DBB018B1BBB178B1320005D2384
:100B20002200BB1B8B1723005408F80090312000D3
:100B3000A32874083F3C003A0319992D2300570855
:100B4000D8005808D9005A102100121DAA2D2300E0
:100B50005A142100121174083E3C0318B12D3E3086
:100B6000F4007408F40ADD3E840020308500031888
:100B7000850A2300590880005A1CC12D2100121536
:100B800023002200BB018B1BBB178B1320003824D2
:100B90002200BB1B8B17200008000B088B132300BF
:100BA0009517151400000000891B8B1713087F3957
:100BB0000319092ED4001108D5001208D6005408D4
:100BC000D70020009925230055089100560892006F
:100BD0000B088B139517151400000000891B8B1749
:100BE000130D140D7F390319092ED4001108D500F7
:100BF0001208D6005408D700200099252300550874
:100C0000910056089200910A0319920A2000CD2DF6
:100C100023002000080021008E150F30F700F70B8D
:100C20000F2E0E160E30F700F70B142E22008E1129
:100C300021008E110F30F700F70B1C2E22000E1230
:100C400021000E12A0302300D4002000E8247C08EC
:100C50002300D4002000E8247D082300D4002000D5
:100C6000E82421008E1100000E1620000E1E362EE4
:100C70000F30F700F70B3A2E3D2E000021008E15A5
:100C80000F30F700F70B422E2000080021008E15D0
:100C90000F30F700F70B4A2E0E160E30F700F70B49
:100CA0004F2E22008E1121008E110F30F700F70B0E
:100CB000572E22000E1221000E12A0302300D40065
:100CC0002000E8247C082300D4002000E8247D08CC
:100CD0002300D4002000E8247E082300D400200054
:100CE000E82421008E1100000E1620000E1E762E24
:100CF0000F30F700F70B7A2E7D2E000021008E15A5
:100D00000F30F700F70B822E2000080021008E150F
:100D10000F30F700F70B8A2E0E160E30F700F70B88
:100D20008F2E22008E1121008E110F30F700F70B4D
:100D3000972E22000E1221000E12B0302300D40094
:100D40002000E8247C082300D4002000E8247D084B
:100D50002300D4002000E82421008E1100000E168C
:100D600020000E1EB12E0F30F700F70BB52EB82E57
:100D7000000021008E150F30F700F70BBD2E20006C
:100D8000080021008E150F30F700F70BC52E0E1648
:100D90000E30F700F70BCA2E22008E1121008E11A3
:100DA0000F30F700F70BD22E22000E1221000E1288
:100DB000B0302300D4002000E8247C082300D400B5
:100DC0002000E8247D082300D4002000E8247E08C9
:100DD0002300D4002000E82421008E1100000E160C
:100DE00020000E1EF12E0F30F700F70BF52EF82E17
:100DF000000021008E150F30F700F70BFD2E2000AC
:100E0000080021008E150F30F700F70B052F0E1686
:100E10000E30F700F70B0A2F22008E1121008E11E1
:100E20000F30F700F70B122F22000E1221000E12C6
:100E3000C0302300D4002000E8247C082300D40024
:100E40002000E8247D082300D4002000E8242100AD
:100E50008E1100000E1620000E1E2C2F0F30F700F2
:100E6000F70B302F332F000021008E150F30F700C5
:100E7000F70B382F2000080021008E150F30F700E7
:100E8000F70B402F0E160E30F700F70B452F220000
:100E90008E1121008E110F30F700F70B4D2F22001D
:100EA0000E1221000E12C0302300D4002000E824CE
:100EB0007C082300D4002000E8247D082300D4000F
:100EC0002000E8247E082300D4002000E82421002C
:100ED0008E1100000E1620000E1E6C2F0F30F70032
:100EE000F70B702F732F000021008E150F30F700C5
:100EF000F70B782F2000080021008E150F30F70027
:100F0000F70B802F0E160E30F700F70B852F2200FF
:100F10008E1121008E110F30F700F70B8D2F22005C
:100F20000E1221000E12D0302300D4002000E8243D
:100F30007C082300D4002000E8247D082300D4008E
:100F40002000E82421008E1100000E1620000E1E45
:100F5000A72F0F30F700F70BAB2FAE2F00002100AB
:100F60008E150F30F700F70BB32F2000080021007B
:100F70008E150F30F700F70BBB2F0E160E30F70053
:100F8000F70BC02F22008E1121008E110F30F700B9
:100F9000F70BC82F22000E1221000E12D0302300B2
:100FA000D4002000E8247C082300D4002000E8249A
:100FB0007D082300D4002000E8247E082300D4000C
:100FC0002000E82421008E1100000E1620000E1EC5
:100FD000E72F0F30F700F70BEB2FEE2F000021006B
:0E0FE0008E150F30F700F70BF32F20000800DE
:1010000007081211F10803198E2C3D0090080319EE
:101010008D2C101D1328121D13288E101211101D57
:10102000132810110F288E1C182820008E2C3D002C
:10103000901E2528921E2528181C24288031200067
:10104000372188313D0018109012901C2B28921CDB
:101050002B2893019010101C5028121C502893012B
:1010600090019F3097003D30920096018031200022
:10107000A72188318031E021883116303D00980069
:10108000901D482880312000FC2188313D004028F7
:101090000E1280312000372188310330F1003D00ED
:1010A000101E5728121E5728121510128E14101FCA
:1010B0005B28121B1013901D8D2C921D8D2C0F0878
:1010C000F00080312000FC218831700C2300E80002
:1010D000E80CE80C1F30E805F008031D5F2C200029
:1010E00020083C392300E90043302000A0052300FC
:1010F0006908343C031D3A2C200024088039031D64
:10110000A4012200BC01200038087F39031992286D
:10111000013A03197C2A033A0319DB2A233A0319FB
:10112000832B102C39080319A828013A0319B52874
:10113000023A0319C528063A0319D428033A0319B9
:10114000E1280E3A03196629013A03197229782A0F
:1011500022003E082000C000C10102302400A2008D
:1011600080312000002288317B2A3A0BC1280130CF
:101170002200BE052400A201803120000022883117
:10118000C4288031052288317B2A3A0BD0282200DE
:10119000BE142400A2018031200000228831D3280F
:1011A0008031052288317B2A02302200BC002000D9
:1011B0003A08F3002400A201803120000022883187
:1011C0007B2A2200C701C601BF0120003B08013A6B
:1011D0000319F428033A0319FB28013A03190029DB
:1011E000223A03191E2943292200C9011230C800DE
:1011F0000330BF004A292200C9014330C8004A29F0
:1012000002302200BF00C03020003A0784002030A6
:1012100085000318850A00082200C600C701470898
:10122000FA004608803120000A218831F800FA01CE
:1012300078082200C8007A08C9004A293A08803193
:10124000EE208831F800FA0178082200C6007A08FA
:10125000C700460F2E29C70803193E294708FA0080
:10126000460880312000A8208831F800FA0178086B
:101270002200C8007A08C9004A2944298031200088
:10128000052288316529220080312000052288311D
:10129000652922002000BF08031D5E292200C9081D
:1012A000031D5829480820003E0203185E29220029
:1012B000C90120003E082200C800200001302200A1
:1012C000BC0080312000082288317B2A22003D08A2
:1012D0002000C00001302400A20080312000002244
:1012E00088317B2A3A08013C031C772A3A082200FD
:1012F000BD0020003A082300EA00EA08031D8829FF
:101300000430F10080312000A7218831712A2300A8
:101310000530F10020302400A3001830A200103066
:1013200022072300EC0000302400233D2300ED00C1
:101330000130EB006B08073C031C702A6B0824008B
:10134000A800803120007F2188312300EE016B0846
:101350008031200055208831FF3C0319142A0430C5
:101360002300EE0003106B0D2400A200220A80313E
:10137000200087208831FA002400220880312000D4
:10138000872088312400A0007A08A10023006B0D7B
:10139000F700F70DF70DF830F7057708013E8400E8
:1013A0002030850024002008800023006B0DF7000A
:1013B000F70DF70DF830F7057708023E840020306E
:1013C00085006C0880006D08813F03106B0D2400C0
:1013D000A200220A8031200087208831FA002400F0
:1013E000220880312000872088312300EC077A080A
:1013F000ED3D8830EF002400211C012A23006F14EA
:101400002400A11C062A2300EF14240023006B0DE6
:10141000F700F70DF70DF830F70577088400203056
:1014200085006F088000200023006B0880312000B9
:1014300044208831FF3C0319512A2300EE146B0D20
:10144000F700F70DF70DF830F7057708043E023E78
:101450008400203085006C0880006D08813F0310F7
:101460006B0D2400A200220A803120006620883102
:10147000FA002400220880312000662088312300F1
:10148000EC077A08ED3D6B0DF700F70DF70DF8301E
:10149000F7057708043E8400203085004030800046
:1014A000200023006E08063C031D582A0E30EE0073
:1014B000EE080319672A6B08803120004420883128
:1014C000013C031D652A2300672A23006E1698300D
:1014D0006B0784000E3085006E088000EB0A9A29A5
:1014E00020002400A20180312000002288317B2AC4
:1014F000803105228831132C22003D082300EA00A8
:101500002000390803198B2A0A3A0319952A013A4F
:101510000319BC2AD72AC001C10102302400A2004D
:101520008031200000228831DA2A2300EA080319DA
:10153000B72A01306A0280312000EC208831F8009F
:101540003C02031CA52A2300B72ACA303C078400AA
:10155000203085000318850A0008C00001302400EF
:10156000A2008031200000228831BB2A2300803174
:10157000200005228831DA2A2300EA080319D22A3A
:10158000CA3020003C078400203085000318850AFB
:101590003A0880002400A201803120000022883116
:1015A000D62A23008031200005228831DA2A8031B2
:1015B00005228831132C3C082400A900803120002A
:1015C00057218831F8080319822B3908013A031989
:1015D000F02A023A0319192B033A0319432B7F2BE4
:1015E0003C082300EA006B10EA1B6B14EA136B1C27
:1015F000072B6A0DF700F70DF70DF830F7057708A0
:10160000043E84002030850088308000122B6A0D53
:10161000F700F70DF70DF830F70577088400203054
:10162000850080012400A201803120000022883141
:10163000822B3C082300EA006B10EA1B6B14EA13B0
:101640006B1C302B6A0DF700F70DF70DF830F7051E
:101650007708043E840020308500843080003C2BD5
:101660006A0DF700F70DF70DF830F70577088400DD
:1016700020308500843080002400A20180312000C9
:1016800000228831822BC001C1013C082300EB00FD
:101690006C10EB1B6C14EB136C1C5C2B6B0DF700CC
:1016A000F70DF70DF830F7057708043E8400203079
:1016B00085000008ED00682B6B0DF700F70DF70DA6
:1016C000F830F70577088400203085000008ED0029
:1016D000ED1F6C2B6D196E2B00306F2B0130F80055
:1016E000F8080319772B01302000C00023000230D6
:1016F0002400A2008031200000228831822B80311A
:1017000005228831132C3C0B862B892BBC08031D2A
:101710000F2C390803199C2B013A0319A22B213AEB
:101720000319CA2B013A0319D12B033A0319F52BDC
:10173000013A0319FE2B0C2C0130FB0080316C2286
:1017400088310F2C220055082000C00022005608C6
:101750002000C100220057082000C20022005808C3
:101760002000C300220059082000C40022005A08AB
:101770002000C50022005B082000C60022005C0893
:101780002000C7003E082400A20080312000002273
:1017900088310F2C0230FB00751480316C228831A7
:1017A0000F2C22004C082000C00022004D08200011
:1017B000C10022004E082000C20022004F08200075
:1017C000C300220050082000C4002200510820005D
:1017D000C500220052082000C60007302400A200E5
:1017E00080312000002288310F2C3A08F6002400B6
:1017F000A20180312000002288310F2C3A082200FB
:10180000D40020003B082200D3002400A201803134
:101810002000002288310F2C803105228831132CC2
:101820008031052288313D000E12720F212C2300D9
:10183000EC010330ED00803120006F228831382C1C
:101840003D002300EC010230ED00803120006F22CA
:1018500088317208FE3C0319382C2400A801AA0123
:101860007208A9000430AB0080312000F7228831D3
:101870005D2C23006908043C031D5E2CEA018031C5
:101880002000662388312300EC010230ED00803116
:1018900020006F2288317208FE3C03195D2C720F04
:1018A000522C5D2C2400A801AA017208A900013065
:1018B000AB0080312000F722883123008B2C700888
:1018C000043C031D7A2CFF30F200EB018031200034
:1018D0004F248831720F6D2C782C2400A801AA01A6
:1018E0007208A9000230AB0080312000F722883155
:1018F0008A2C23007019842C6808EA0080312000AB
:10190000662388318A2C23006808EB008031200090
:101910004F24883123003D005B2820008031282897
:1019200021008E150F30F700F70B942C0E160E3099
:10193000F700F70B992C22008E1121008E110F3029
:10194000F700F70BA12C22000E1221000E12E0303E
:101950002300D40080312000E82488317C08230053
:10196000D40080312000E82488317D082300D40091
:1019700080312000E824883121008E1100000E16ED
:1019800020000E1EC12C0F30F700F70BC52CC82C01
:10199000000021008E150F30F700F70BCD2C200032
:1019A000080021008E150F30F700F70BD52C0E160E
:1019B0000E30F700F70BDA2C22008E1121008E1169
:1019C0000F30F700F70BE22C22000E1221000E124E
:1019D000E0302300D40080312000E82488317C08E6
:1019E0002300D40080312000E82488317D082300C2
:1019F000D40080312000E82488317E082300D40000
:101A000080312000E824883121008E1100000E165C
:101A100020000E1E092D0F30F700F70B0D2D102D95
:101A2000000021008E150F30F700F70B152D200058
:101A3000080021008E150F30F700F70B1D2D0E1634
:101A40000E30F700F70B222D22008E1121008E118F
:101A50000F30F700F70B2A2D22000E1221000E1274
:101A6000F0302300D40080312000E82488317C0845
:101A70002300D40080312000E82488317D08230031
:101A8000D40080312000E824883121008E1100002C
:101A90000E1620000E1E4A2D0F30F700F70B4E2DAC
:101AA000512D000021008E150F30F700F70B562D39
:101AB0002000080021008E150F30F700F70B5E2D77
:101AC0000E160E30F700F70B632D22008E11210049
:101AD0008E110F30F700F70B6B2D22000E12210034
:101AE0000E12F0302300D40080312000E824883129
:101AF0007C082300D40080312000E82488317D0850
:101B00002300D40080312000E82488317E0823009F
:101B1000D40080312000E824883121008E1100009B
:101B20000E1620000E1E922D0F30F700F70B962D8B
:101B3000992D000021008E150F30F700F70B9E2D18
:041B40002000080079
:102000003C302100990098012300D101D0014430D7
:10201000CF005C30CE008E012200C0010430C10030
:102020000C30C2002300CC01CD0121008C12220013
:102030008C1621000E1122000E1521008E10220098
:102040008E1421000E1022000E1404302300D40040
:10205000FA30D50080312000D22490312300D40BF7
:10206000282821000C1222000C1221008C122200C0
:102070008C1221000E1122000E1121008E10220060
:102080008E1021000E1022000E1002302300D4000A
:10209000FA30D50080312000D22490312300D40BB7
:1020A000482821008E150F30F700F70B55280E1623
:1020B0000E30F700F70B5A2822008E1121008E11E6
:1020C0000F30F700F70B622822000E1221000E12CB
:1020D000A0302300D40080312000E824903121007A
:1020E0008E1100000E1620000E1E74280F30F7000F
:1020F000F70B78287B28000021008E150F30F700A1
:10210000F70B8028C0308B042200BB018B1BBB1750
:102110008B1380312000B72190312200BB1B8B171D
:1021200080312000582D903180313225903180311E
:10213000712D9031F8080319732A2200431C742A68
:1021400080312000772D903178082300D20052088A
:102150002F3C0318B2285208403C031CB2283030F0
:102160005202D3005208603C0318BD285208663C56
:10217000031CBD2857305202D3005308013A2000F7
:102180000319E428033A03190629013A03192729F8
:10219000073A03194929013A03196B29033A03192C
:1021A0008C29013A0319AE290F3A0319D029013AB3
:1021B0000319F129093A0319112A0A3A0319322A93
:1021C000013A0319522A732A21000C1222000C161C
:1021D0007C30230091000430920080312000CD2516
:1021E0009031FC01FD0180310B269031FC01033060
:1021F000FD0080310B2690317130FC002030FD0055
:102200000230FE00803146269031732A21000C12E4
:1022100022000C168330230091000430920080319C
:102220002000CD259031FC01FD0180310B2690313D
:10223000FC010330FD0080310B2690317130FC0031
:102240002030FD00FE01803146269031732A2100A6
:102250000C1222000C168C302300910004309200E6
:1022600080312000CD259031FC01FD018031862692
:102270009031FC010330FD008031862690317130B1
:10228000FC002030FD000230FE008031C12690317C
:10229000732A21000C1222000C16933023009100A7
:1022A0000430920080312000CD259031FC01FD01E9
:1022B000803186269031FC010330FD008031862676
:1022C00090317130FC002030FD000130FE00803183
:1022D000C1269031732A21000C1222000C169B306B
:1022E000230091000430920080312000CD259031F0
:1022F000FC01FD01803101279031FC010330FD001C
:102300008031012790317130FC002030FD00FE014A
:1023100080313C279031732A21000C1222000C16C8
:10232000A330230091000430920080312000CD259D
:102330009031FC01FD01803101279031FC01033017
:10234000FD008031012790317130FC002030FD000C
:102350000230FE0080313C279031732A21000C129C
:1023600022000C16AD302300910004309200803121
:102370002000CD259031FC01FD0180317C2790317A
:10238000FC010330FD0080317C2790317130FC006E
:102390002030FD000230FE008031B7279031732AD3
:1023A00021000C1222000C16B530230091000430DD
:1023B000920080312000CD259031FC01FD0180315B
:1023C0007C279031FC010330FD0080317C27903167
:1023D0007130FC002030FD00FE018031B7279031C4
:1023E000732A21000C1222000C16BC30230091002D
:1023F0000430920080312000CD259031FC01FD0198
:10240000883190249031FC01FD0188319024903175
:102410007130FC007830FD00FE018831D12490310C
:10242000732A21000C1222000C16C33023009100E5
:102430000430920080312000CD259031FC01FD0157
:10244000883190249031FC01FD0188319024903135
:102450007130FC007830FD000130FE008831D1245D
:102460009031732A21000C1222000C16C93023006F
:1024700091000430920080312000CD259031FC0184
:10248000FD01883119259031FC01FD0188311925A4
:1024900090317130FC007830FD00FE0188315A2502
:1024A0009031732A21000C1222000C16CD3023002B
:1024B00091000430920080312000CD259031FC0144
:1024C000FD01883119259031FC01FD018831192564
:1024D00090317130FC007830FD000130FE00883111
:0E24E0005A259031732A2200200094286300B0
:020000040001F9
:04000E00843FCF1F3D
:00000001FF
;PIC16F1454
;CRC=99A3  CREATED="26-jul.-17 22:48"
